:100000000C9458000C9480000C9480000C94800098
:100010000C9480000C9480000C9480000C94800060
:100020000C9480000C9480000C9480000C94800050
:100030000C9480000C9480000C9480000C94800040
:100040000C94F4020C9480000C9480000C948000BA
:100050000C9480000C9480000C9480000C94800020
:100060000C943E030C948000000000002500280042
:100070002B00040404040404040402020202020229
:10008000030303030303010204081020408001025C
:1000900004081020010204081020000000080002DB
:1000A0000100000304070000000000000000260516
:1000B00011241FBECFEFD8E0DEBFCDBF11E0A0E01E
:1000C000B1E0E6E1FEE002C005900D92A231B10779
:1000D000D9F721E0A2E1B1E001C01D92AB3DB2072A
:1000E000E1F710E0C8E5D0E004C02197FE010E94CE
:1000F000FE06C735D107C9F70E946C040C940907A6
:100100000C9400003091CE01313208F04BC0809148
:10011000AA018111FCCF9091CD0122E02093AA0188
:1001200021E02093A9012FEF2093A8011092A701AD
:100130003093A601EDEAF1E0A6E8B1E020E0321745
:1001400021F041914D932F5FFACF109285012091BC
:100150008501990F922B90938501909184019130A4
:1001600061F410928401909185019093BB0090916D
:10017000BC0093FDF8CF95EC01C095EE9093BC00C8
:100180009091AA019230E1F39091A8019F3F79F0FC
:100190008091A801803241F08091A801803331F034
:1001A00084E005C081E003C082E001C083E01092DA
:1001B000AC011092CE011092AB01089590E0FC01C9
:1001C000E656FF4F2491FC01EA57FF4F3491FC01A2
:1001D000EE58FF4FE491EE23B1F1222339F12330A1
:1001E00091F038F42130A9F0223001F584B58F7DEB
:1001F00012C0273091F02830A1F02430B9F480915A
:1002000080008F7D03C0809180008F778093800075
:100210000DC084B58F7784BD09C08091B0008F7701
:1002200003C08091B0008F7D8093B000F0E0EE0FAE
:10023000FF1FE859FF4FA591B4918FB7F894EC9147
:10024000E32BEC938FBF0895CF92DF92EF92FF9252
:100250000F931F93CF93DF936C017A018B01C0E062
:10026000D0E0CE15DF0581F0D8016D918D01D6016A
:10027000ED91FC910190F081E02DC6010995892B4B
:1002800011F02196EECF7E01C701DF91CF911F9132
:100290000F91FF90EF90DF90CF900895089508950B
:1002A0003FB7F89480917A0190917B01A0917C01F5
:1002B000B0917D0126B5A89B05C02F3F19F001968E
:1002C000A11DB11D3FBFBA2FA92F982F8827820FDC
:1002D000911DA11DB11DBC01CD0142E0660F771F2C
:1002E000881F991F4A95D1F708958F929F92AF92D8
:1002F000BF92CF92DF92EF92FF920E9450014B018A
:100300005C0188EEC82E83E0D82EE12CF12C0E94EF
:100310005001DC01CB0188199909AA09BB09883E63
:100320009340A105B10598F321E0C21AD108E10874
:10033000F10888EE880E83E0981EA11CB11CC11440
:10034000D104E104F10419F7FF90EF90DF90CF9012
:10035000BF90AF909F908F90089585ED8093BC00E3
:100360008091BC0084FDFCCF1092AA0108954091B9
:100370005201262F30E0240F311D21323105DCF4EB
:100380002091AA012430C9F4FC0180E090E0861796
:1003900058F4309152012191DC01AE5CBE4FA30FA5
:1003A000B11D2C930196F3CF80915201680F609399
:1003B000520180E0089581E0089582E00895089553
:1003C000E091830180918201E81730F4F0E0EE5E65
:1003D000FE4F808190E008958FEF9FEF08959091F8
:1003E000830180918201981750F4E92FF0E0EE5ECE
:1003F000FE4F208130E09F5F9093830102C02FEF7A
:100400003FEFC90108958091820190E0209183011E
:10041000821B91090895CF92DF92EF92FF920F9382
:100420001F93CF93DF937C01CB018A012091AB0115
:10043000222389F0EB016B01C40ED51ECC15DD051E
:1004400069F06991D701ED91FC910190F081E02D67
:10045000C7010995F3CF642F0E94B701C801DF914E
:10046000CF911F910F91FF90EF90DF90CF90089563
:10047000CF93DF931F92CDB7DEB769832091AB0195
:100480002223D1F02091CE01203240F021E030E053
:10049000FC013383228380E090E015C08091AC01A1
:1004A000E82FF0E0E355FE4F998190838F5F8093B2
:1004B000AC018093CE0105C061E0CE0101960E949F
:1004C000B70181E090E00F90DF91CF910895682F00
:1004D0008FEC91E00C943802CF92DF92EF92FF9272
:1004E0001F93CF93DF93BC01990F880B990B0E9448
:1004F000DC0520E030E040E250E40E946D0620E0A0
:1005000030E046E153E40E9438056B017C0120E0B5
:1005100030E0A9010E94680620E030E040E05FE39F
:1005200087FD05C0C701B6010E94380504C0C70198
:10053000B6010E9437050E94A405EB0111E010935B
:10054000AB0180E48093CD011092AC011092CE01FA
:100550008AEF90E00E94670280E090E00E946702CC
:100560000E9482001093AB011092AC011092CE0158
:100570008BEF90E00E94670280E090E00E946702AB
:100580000E9482001093AB011092AC011092CE0138
:100590008CEF90E00E946702CE0199270E946702CB
:1005A0000E9482001093AB011092AC011092CE0118
:1005B0008DEF90E00E946702BE0166277F70872F53
:1005C000972F990F990B0E946702DF91CF911F918E
:1005D000FF90EF90DF90CF900C948200089580E020
:1005E00090E008950E9404071F920F920FB60F9299
:1005F00011242F933F938F939F93AF93BF93809139
:10060000760190917701A0917801B09179013091B4
:10061000750123E0230F2D3720F40196A11DB11D94
:1006200005C026E8230F0296A11DB11D2093750178
:100630008093760190937701A0937801B09379012C
:1006400080917A0190917B01A0917C01B0917D0114
:100650000196A11DB11D80937A0190937B01A09317
:100660007C01B0937D01BF91AF919F918F913F919C
:100670002F910F900FBE0F901F9018951F920F9201
:100680000FB60F9211242F933F934F935F936F9365
:100690007F938F939F93AF93BF93EF93FF9380913B
:1006A000B900887F803609F49CC068F5883209F467
:1006B0005BC090F4803109F454C038F4882309F405
:1006C000F6C0883009F44DC0F6C0883109F44CC03A
:1006D000803209F45DC0EFC0803409F468C048F48A
:1006E000803309F455C0883309F0E5C08093A80130
:1006F000D8C0803509F44FC0883509F45DC088340E
:1007000009F0D9C0D6C0883909F4C7C0A8F4883721
:1007100009F467C038F4883609F463C0803709F4F7
:1007200060C0C9C0883809F4B8C0803909F45FC016
:10073000803809F0C0C05BC0803B09F486C038F443
:10074000803A09F466C0883A09F47FC0B4C0803C9E
:1007500009F4A7C0883C09F4A4C0883B09F48AC006
:10076000AAC08091850110C09091A7018091A60137
:10077000981770F5E091A70181E08E0F8093A70193
:10078000F0E0EA57FE4F80818093BB0085EC86C085
:100790008093A8018EC0E091A70181E08E0F809325
:1007A000A7018091BB00F0E0EA57FE4F8083909153
:1007B000A7018091A6016EC0E091A70181E08E0F94
:1007C0008093A7018091BB00F0E0EA57FE4F808341
:1007D0008091A90181116DC081E08093840184EA38
:1007E00061C083E08093AA0110927401CFCF809101
:1007F0007401803208F051C0E091740181E08E0FE5
:10080000809374018091BB00F0E0EC5AFE4F80832E
:10081000BDCF85EC8093BC001092AA018091740139
:10082000803230F4E0917401F0E0EC5AFE4F108217
:100830006091740170E0E0917E01F0917F0184E5A8
:1008400091E009951092740136C084E08093AA016A
:100850001092530110925201E0918001F0918101B8
:10086000099580915201811105C081E08093520168
:1008700010923201E091530181E08E0F8093530179
:10088000F0E0EE5CFE4F80818093BB0090915301BD
:1008900080915201981708F479CF85E88093BC00C5
:1008A0000AC085EC8093BC001092AA0104C010928B
:1008B000A8010E94AD01FF91EF91BF91AF919F916F
:1008C0008F917F916F915F914F913F912F910F90F9
:1008D0000FBE0F901F901895789484B5826084BDE8
:1008E00084B5816084BD85B5826085BD85B5816034
:1008F00085BD80916E00816080936E0010928100B2
:10090000809181008260809381008091810081606C
:10091000809381008091800081608093800080912D
:10092000B10084608093B1008091B00081608093B9
:10093000B00080917A00846080937A0080917A0080
:10094000826080937A0080917A00816080937A003F
:1009500080917A00806880937A001092C100109292
:100960008301109282011092AC011092CE0110927C
:10097000AA01C1E0C093A9011092840182E10E9402
:10098000DE0083E10E94DE008091B9008E7F8093BB
:10099000B9008091B9008D7F8093B90088E480937D
:1009A000B80085E48093BC008EE491E090938101CF
:1009B000809380018FE491E090937F0180937E018A
:1009C000C093AB0180E48093CD011092AC011092F2
:1009D000CE0180E090E00E94670280E190E00E94FA
:1009E00067020E948200C093AB011092AC0110928A
:1009F000CE018EEF90E00E94670289E790E00E94AE
:100A000067020E948200C093AB011092AC01109269
:100A1000CE0180E090E00E94670280E890E00E94B2
:100A200067020E948200C0E0D0E080E090E00E9477
:100A30006C020E94750184EB90E00E946C020E949F
:100A40007501209791F30E940000EFCFEFECF1E0E9
:100A50001382128288EE93E0A0E0B0E08483958355
:100A6000A683B78384E091E09183808308955058F2
:100A7000BB27AA270E944F050C942E060E94200631
:100A800038F00E94270620F039F49F3F19F426F42D
:100A90000C941D060EF4E095E7FB0C941706E92F65
:100AA0000E943F0658F3BA17620773078407950739
:100AB00020F079F4A6F50C9461060EF4E0950B2E67
:100AC000BA2FA02D0B01B90190010C01CA01A001A0
:100AD0001124FF27591B99F0593F50F4503E68F1FB
:100AE0001A16F040A22F232F342F4427585FF3CF3C
:100AF000469537952795A795F0405395C9F77EF40D
:100B00001F16BA0B620B730B840BBAF09150A1F055
:100B1000FF0FBB1F661F771F881FC2F70EC0BA0FDB
:100B2000621F731F841F48F4879577956795B79563
:100B3000F7959E3F08F0B0CF9395880F08F099275E
:100B4000EE0F9795879508950E94AB056894B111B3
:100B50000C94620608950E94470688F09F5798F00B
:100B6000B92F9927B751B0F0E1F0660F771F881FB2
:100B7000991F1AF0BA95C9F714C0B13091F00E94CC
:100B80006106B1E008950C946106672F782F8827DD
:100B9000B85F39F0B93FCCF3869577956795B395F3
:100BA000D9F73EF490958095709561957F4F8F4F62
:100BB0009F4F0895E89409C097FB3EF49095809567
:100BC000709561957F4F8F4F9F4F9923A9F0F92F13
:100BD00096E9BB279395F695879577956795B79591
:100BE000F111F8CFFAF4BB0F11F460FF1BC06F5F77
:100BF0007F4F8F4F9F4F16C0882311F096E911C089
:100C0000772321F09EE8872F762F05C0662371F0A9
:100C100096E8862F70E060E02AF09A95660F771FBD
:100C2000881FDAF7880F9695879597F9089597F9B1
:100C30009F6780E870E060E008959FEF80EC089582
:100C400000240A94161617061806090608950024AB
:100C50000A9412161306140605060895092E039425
:100C6000000C11F4882352F0BB0F40F4BF2B11F499
:100C700060FF04C06F5F7F4F8F4F9F4F089557FDF8
:100C80009058440F551F59F05F3F71F04795880FFA
:100C900097FB991F61F09F3F79F087950895121691
:100CA00013061406551FF2CF4695F1DF08C016163D
:100CB00017061806991FF1CF8695710561050894EE
:100CC0000895E894BB2766277727CB0197F9089505
:100CD0000E94DA0608F48FEF08950E9480060C94B3
:100CE0002E060E94200638F00E94270620F0952349
:100CF00011F00C9417060C941D0611240C94620636
:100D00000E943F0670F3959FC1F3950F50E0551F69
:100D1000629FF001729FBB27F00DB11D639FAA2750
:100D2000F00DB11DAA1F649F6627B00DA11D661F9F
:100D3000829F2227B00DA11D621F739FB00DA11DC0
:100D4000621F839FA00D611D221F749F3327A00D7A
:100D5000611D231F849F600D211D822F762F6A2F16
:100D600011249F5750409AF0F1F088234AF0EE0F7B
:100D7000FF1FBB1F661F771F881F91505040A9F7A8
:100D80009E3F510580F00C9417060C9462065F3F5D
:100D9000E4F3983ED4F3869577956795B795F795E4
:100DA000E7959F5FC1F7FE2B880F911D969587955C
:100DB00097F90895990F0008550FAA0BE0E8FEEF88
:100DC00016161706E807F907C0F012161306E4070F
:100DD000F50798F0621B730B840B950B39F40A2608
:100DE00061F0232B242B252B21F408950A2609F4E6
:100DF000A140A6958FEF811D811D0895EE0FFF1F65
:100E00000590F491E02D099481E090E0F8940C9421
:060E10000907F894FFCF72
:100E16000000000038020B02EF02DF010302EF01BF
:020E2600E001E9
:107E0000112484B714BE81FFF0D085E080938100F7
:107E100082E08093C00088E18093C10086E0809377
:107E2000C20080E18093C4008EE0C9D0259A86E02C
:107E300020E33CEF91E0309385002093840096BBD3
:107E4000B09BFECF1D9AA8958150A9F7CC24DD24C4
:107E500088248394B5E0AB2EA1E19A2EF3E0BF2EE7
:107E6000A2D0813461F49FD0082FAFD0023811F036
:107E7000013811F484E001C083E08DD089C08234E0
:107E800011F484E103C0853419F485E0A6D080C0E4
:107E9000853579F488D0E82EFF2485D0082F10E0AE
:107EA000102F00270E291F29000F111F8ED06801E7
:107EB0006FC0863521F484E090D080E0DECF843638
:107EC00009F040C070D06FD0082F6DD080E0C81688
:107ED00080E7D80618F4F601B7BEE895C0E0D1E017
:107EE00062D089930C17E1F7F0E0CF16F0E7DF06D8
:107EF00018F0F601B7BEE89568D007B600FCFDCFD4
:107F0000A601A0E0B1E02C9130E011968C91119780
:107F100090E0982F8827822B932B1296FA010C0160
:107F200087BEE89511244E5F5F4FF1E0A038BF0790
:107F300051F7F601A7BEE89507B600FCFDCF97BE46
:107F4000E89526C08437B1F42ED02DD0F82E2BD052
:107F50003CD0F601EF2C8F010F5F1F4F84911BD097
:107F6000EA94F801C1F70894C11CD11CFA94CF0C13
:107F7000D11C0EC0853739F428D08EE10CD085E9AC
:107F80000AD08FE07ACF813511F488E018D01DD067
:107F900080E101D065CF982F8091C00085FFFCCF94
:107FA0009093C60008958091C00087FFFCCF809118
:107FB000C00084FD01C0A8958091C6000895E0E648
:107FC000F0E098E1908380830895EDDF803219F02E
:107FD00088E0F5DFFFCF84E1DECF1F93182FE3DFCA
:107FE0001150E9F7F2DF1F91089580E0E8DFEE27F6
:047FF000FF270994CA
:027FFE00040479
:0400000300007E007B
:00000001FF