:100000000C9458000C9480000C9480000C94800098
:100010000C9480000C9480000C9480000C94800060
:100020000C9480000C9480000C9480000C94800050
:100030000C9480000C9480000C9480000C94800040
:100040000C9433040C9480000C9401040C94DB0396
:100050000C9480000C9480000C9480000C94800020
:100060000C947D040C948000000000002500280002
:100070002B00040404040404040402020202020229
:10008000030303030303010204081020408001025C
:1000900004081020010204081020000000080002DB
:1000A0000100000304070000000000000000AB0591
:1000B00011241FBECFEFD8E0DEBFCDBF11E0A0E01E
:1000C000B1E0EEE4F1E102C005900D92A234B10777
:1000D000D9F722E0A2E4B1E001C01D92A838B2072E
:1000E000E1F710E0C8E5D0E004C02197FE010E94CE
:1000F0009A08C735D107C9F70E94E4050C94A508F2
:100100000C9400002091DE019091DD01213208F075
:100110004AC08091BA018111FCCF32E03093BA011C
:1001200031E03093B9013FEF3093B8011092B7013D
:100130002093B601ADEBB1E046E951E0FA013E2F64
:10014000341B321718F43D913193F9CF1092950179
:1001500020919501990F922B909395019091940184
:10016000913061F410929401909195019093BB00AD
:100170009091BC0093FDF8CF95EC01C095EE909363
:10018000BC009091BA019230E1F39091B8019F3F89
:1001900079F08091B801803241F08091B8018033CC
:1001A00031F084E005C081E003C082E001C083E05B
:1001B0001092BC011092DE011092BB01089590E0F4
:1001C000FC01E656FF4F2491FC01EA57FF4F3491A2
:1001D000FC01EE58FF4FE491EE23B1F1222339F1F7
:1001E000233091F038F42130A9F0223001F584B5A4
:1001F0008F7D12C0273091F02830A1F02430B9F45F
:10020000809180008F7D03C0809180008F778093E4
:1002100080000DC084B58F7784BD09C08091B00087
:100220008F7703C08091B0008F7D8093B000F0E0A5
:10023000EE0FFF1FE859FF4FA591B4918FB7F894C7
:10024000EC913E2B3C938FBF0895CF92DF92EF92BB
:10025000FF920F931F93CF93DF936C017A018B0171
:10026000C0E0D0E0CE15DF0589F0D8016D918D0199
:10027000D601ED91FC910190F081E02DC601099528
:10028000892B11F47E0102C02196ECCFC701DF91CA
:10029000CF911F910F91FF90EF90DF90CF90089535
:1002A000FC01918D828D981761F0828DDF01A80F7E
:1002B000B11D5D968C91928D9F5F9F73928F90E0A0
:1002C00008958FEF9FEF0895FC01918D828D98170F
:1002D00031F0828DE80FF11D858D90E008958FEF4C
:1002E0009FEF0895FC01918D228D892F90E0805C15
:1002F0009F4F821B91098F73992708958FED91E08D
:100300000E94720121E0892B09F420E0822F0895D8
:10031000FC01848DDF01A80FB11DA35ABF4F2C91A2
:10032000848D90E001968F739927848FA689B78971
:100330002C93A089B1898C9180648C93938D848D4A
:10034000981306C00288F389E02D80818F7D808319
:100350000895EF92FF920F931F93CF93DF93EC01D9
:1003600081E0888F9B8D8C8D981305C0E889F98971
:10037000808185FD24C0F62E0B8D10E00F5F1F4F8E
:100380000F731127E02E8C8DE8120CC00FB607FCFE
:10039000FACFE889F989808185FFF5CFCE010E94E7
:1003A0008801F1CF8B8DFE01E80FF11DE35AFF4F5D
:1003B000F0820B8FEA89FB898081806207C0EE8919
:1003C000FF896083E889F98980818064808381E086
:1003D00090E0DF91CF911F910F91FF90EF900895E2
:1003E000CF93DF93EC01888D8823C9F0EA89FB89DC
:1003F000808185FD05C0A889B9898C9186FD0FC0D3
:100400000FB607FCF5CF808185FFF2CFA889B989A7
:100410008C9185FFEDCFCE010E948801E7CFDF915F
:10042000CF91089580E090E0892B29F00E947E0111
:1004300081110C94000008953FB7F89480918E01CB
:1004400090918F01A0919001B091910126B5A89B48
:1004500005C02F3F19F00196A11DB11D3FBFBA2F56
:10046000A92F982F8827820F911DA11DB11DBC01B6
:10047000CD0142E0660F771F881F991F4A95D1F77B
:1004800008958F929F92AF92BF92CF92DF92EF9298
:10049000FF920E941C024B015C0188EEC82E83E093
:1004A000D82EE12CF12C0E941C02DC01CB01881912
:1004B0009909AA09BB09883E9340A105B10558F0E6
:1004C00021E0C21AD108E108F10888EE880E83E025
:1004D000981EA11CB11CC114D104E104F10419F748
:1004E000FF90EF90DF90CF90BF90AF909F908F9054
:1004F000089585ED8093BC008091BC0084FDFCCF05
:100500001092BA01089540916401262F30E0240F23
:10051000311D21323105DCF42091BA012430C9F4B7
:10052000FC0180E090E0861758F43091640121913D
:10053000DC01AE5BBE4FA30FB11D2C930196F3CF30
:1005400080916401680F6093640180E0089581E008
:10055000089582E00895089581E090E0309193013C
:1005600020919201321710F480E090E091958195EE
:10057000910908958091930190919201891730F427
:100580008F5F8093930180E090E008958FEF9FEF5D
:1005900008958091920190E020919301821B91092E
:1005A0000895CF92DF92EF92FF920F931F93CF9314
:1005B000DF937C01262F972F8A018091BB0188232E
:1005C00091F0C62FD72F6E01C40ED51ECC15DD05B8
:1005D00071F06991D701ED91FC910190F081E02DCE
:1005E000C7010995F3CF642F822F0E948302C801AF
:1005F000DF91CF911F910F91FF90EF90DF90CF90FF
:100600000895CF93DF931F92CDB7DEB76983209112
:10061000BB012223D1F02091DE01203240F021E005
:1006200030E0FC013383228380E090E015C08091AC
:10063000BC01E82FF0E0E354FE4F998190838F5F77
:100640008093BC018093DE0105C061E0CE0101967C
:100650000E94830281E090E00F90DF91CF91089596
:10066000682F8CE792E00C940103CF92DF92EF9217
:10067000FF920F931F93CF93BC01990F880B990B97
:100680000E94780720E030E040E250E40E94090830
:1006900020E030E046E153E40E94D4066B017C0187
:1006A00020E030E0A9010E94040820E030E040E0B2
:1006B0005FE387FD05C0C701B6010E94D40604C0F0
:1006C000C701B6010E94D3060E9440078B01C1E01A
:1006D000C093BB0180E48093DD011092BC011092B5
:1006E000DE018AEF90E00E94300380E090E00E94FB
:1006F00030030E948200C093BB011092BC01109293
:10070000DE018BEF90E00E94300380E090E00E94D9
:1007100030030E948200C093BB011092BC01109272
:10072000DE018CEF90E00E943003C80199270E94FF
:1007300030030E948200C093BB011092BC01109252
:10074000DE018DEF90E00E943003B80166277F70D4
:10075000872F972F990F990B0E943003CF911F91EC
:100760000F91FF90EF90DF90CF900C948200CF9389
:10077000DF93009779F0FC0101900020E9F73197B1
:10078000AF01481B590BBC018FED91E00E94250180
:10079000EC0102C0C0E0D0E042E050E060E271E075
:1007A0008FED91E00E9425018C0F9D1FDF91CF916D
:1007B00008950E94A0081F920F920FB60F92112465
:1007C0002F933F934F935F936F937F938F939F9359
:1007D000AF93BF93EF93FF938FED91E00E94880159
:1007E000FF91EF91BF91AF919F918F917F916F9109
:1007F0005F914F913F912F910F900FBE0F901F90DF
:1008000018951F920F920FB60F9211242F938F936A
:100810009F93EF93FF93E091EF01F091F0018081BE
:10082000E091F501F091F60182FD12C09081809176
:10083000F8018F5F8F732091F901821751F0E091D9
:10084000F801F0E0E152FE4F958F8093F80101C06E
:100850008081FF91EF919F918F912F910F900FBE0B
:100860000F901F9018951F920F920FB60F921124A0
:100870002F933F938F939F93AF93BF9380918A0160
:1008800090918B01A0918C01B0918D0130918901E3
:1008900023E0230F2D3720F40196A11DB11D05C0C3
:1008A00026E8230F0296A11DB11D20938901809394
:1008B0008A0190938B01A0938C01B0938D0180915C
:1008C0008E0190918F01A0919001B09191010196BC
:1008D000A11DB11D80938E0190938F01A093900173
:1008E000B0939101BF91AF919F918F913F912F91C3
:1008F0000F900FBE0F901F9018951F920F920FB67A
:100900000F9211242F933F934F935F936F937F9395
:100910008F939F93AF93BF93EF93FF938091B90011
:10092000887F803609F49CC068F5883209F45BC082
:1009300090F4803109F454C038F4882309F4F6C0E7
:10094000883009F44DC0F6C0883109F44CC08032BB
:1009500009F45DC0EFC0803409F468C048F4803306
:1009600009F455C0883309F0E5C08093B801D8C0B8
:10097000803509F44FC0883509F45DC0883409F02A
:10098000D9C0D6C0883909F4C7C0A8F4883709F49B
:1009900067C038F4883609F463C0803709F460C052
:1009A000C9C0883809F4B8C0803909F45FC08038FC
:1009B00009F0C0C05BC0803B09F486C038F4803ABF
:1009C00009F466C0883A09F47FC0B4C0803C09F4D9
:1009D000A7C0883C09F4A4C0883B09F48AC0AAC017
:1009E0008091950110C09091B7018091B601981740
:1009F00070F5E091B70181E08E0F8093B701F0E0D0
:100A0000EA56FE4F80818093BB0085EC86C08093C0
:100A1000B8018EC0E091B70181E08E0F8093B701DD
:100A20008091BB00F0E0EA56FE4F80839091B701C1
:100A30008091B6016EC0E091B70181E08E0F809386
:100A4000B7018091BB00F0E0EA56FE4F80838091B1
:100A5000B90181116DC081E08093940184EA61C085
:100A600083E08093BA0110928801CFCF80918801F2
:100A7000803208F051C0E091880181E08E0F8093B0
:100A800088018091BB00F0E0E859FE4F8083BDCF24
:100A900085EC8093BC001092BA018091880180326D
:100AA00030F4E0918801F0E0E859FE4F1082609147
:100AB000880170E0E0916601F091670188E691E0BD
:100AC00009951092880136C084E08093BA01109293
:100AD000650110926401E0916201F0916301099552
:100AE00080916401811105C081E0809364011092BE
:100AF0004201E091650181E08E0F80936501F0E095
:100B0000EE5BFE4F80818093BB00909165018091E8
:100B10006401981708F479CF85E88093BC000AC077
:100B200085EC8093BC001092BA0104C01092B80109
:100B30000E947902FF91EF91BF91AF919F918F91A8
:100B40007F916F915F914F913F912F910F900FBEC9
:100B50000F901F901895EFEDF1E01382128288EE4E
:100B600093E0A0E0B0E084839583A683B78324E07C
:100B700031E03183208325EC30E03587248724EC75
:100B800030E03787268720EC30E0318B208B21EC5A
:100B900030E0338B228B22EC30E0358B248B26EC3B
:100BA00030E0378B268B118E128E138E148EECE76D
:100BB000F2E01382128284839583A683B78384E153
:100BC00091E0918380830895789484B5826084BD98
:100BD00084B5816084BD85B5826085BD85B5816041
:100BE00085BD80916E00816080936E0010928100BF
:100BF000809181008260809381008091810081607A
:100C0000809381008091800081608093800080913A
:100C1000B10084608093B1008091B00081608093C6
:100C2000B00080917A00846080937A0080917A008D
:100C3000826080937A0080917A00816080937A004C
:100C400080917A00806880937A001092C10010929F
:100C50009301109292011092BC011092DE01109249
:100C6000BA01C1E0C093B9011092940182E10E94DF
:100C7000DF0083E10E94DF008091B9008E7F8093C6
:100C8000B9008091B9008D7F8093B90088E480938A
:100C9000B80085E48093BC00E091EF01F091F00191
:100CA00082E08083E091EB01F091EC011082E09111
:100CB000ED01F091EE0180E180831092F701E09167
:100CC000F301F091F40186E08083E091F101F0916D
:100CD000F201808180618083E091F101F091F20165
:100CE000808188608083E091F101F091F201808140
:100CF00080688083E091F101F091F20180818F7D25
:100D0000808383E291E00E94B703C093BB0180E43B
:100D10008093DD011092BC011092DE0180E090E032
:100D20000E94300380E190E00E9430030E94820024
:100D3000C093BB011092BC011092DE018EEF90E0D7
:100D40000E94300389E790E00E9430030E948200F5
:100D5000C093BB011092BC011092DE0180E090E0D4
:100D60000E94300380E890E00E9430030E948200DD
:100D700086E391E00E94B70380E491E00E94B7030C
:100D800080E090E00E9435030E9441028EE391E0F2
:100D90000E94B70384EB90E00E9435030E94410259
:100DA0000E941202E9CF5058BB27AA270E94EB06E7
:100DB0000C94CA070E94BC0738F00E94C30720F0B9
:100DC00039F49F3F19F426F40C94B9070EF4E0951A
:100DD000E7FB0C94B307E92F0E94DB0758F3BA171F
:100DE000620773078407950720F079F4A6F50C9441
:100DF000FD070EF4E0950B2EBA2FA02D0B01B901C3
:100E000090010C01CA01A0011124FF27591B99F080
:100E1000593F50F4503E68F11A16F040A22F232F8C
:100E2000342F4427585FF3CF469537952795A795DC
:100E3000F0405395C9F77EF41F16BA0B620B730B83
:100E4000840BBAF09150A1F0FF0FBB1F661F771FF4
:100E5000881FC2F70EC0BA0F621F731F841F48F4A9
:100E6000879577956795B795F7959E3F08F0B0CF32
:100E70009395880F08F09927EE0F97958795089519
:100E80000E9447076894B1110C94FE0708950E94D0
:100E9000E30788F09F5798F0B92F9927B751B0F022
:100EA000E1F0660F771F881F991F1AF0BA95C9F7EE
:100EB00014C0B13091F00E94FD07B1E008950C9488
:100EC000FD07672F782F8827B85F39F0B93FCCF33B
:100ED000869577956795B395D9F73EF4909580956B
:100EE000709561957F4F8F4F9F4F0895E89409C08B
:100EF00097FB3EF490958095709561957F4F8F4F4D
:100F00009F4F9923A9F0F92F96E9BB279395F69562
:100F1000879577956795B795F111F8CFFAF4BB0FE0
:100F200011F460FF1BC06F5F7F4F8F4F9F4F16C044
:100F3000882311F096E911C0772321F09EE8872FCE
:100F4000762F05C0662371F096E8862F70E060E08A
:100F50002AF09A95660F771F881FDAF7880F969503
:100F6000879597F9089597F99F6780E870E060E0AA
:100F700008959FEF80EC089500240A941616170632
:100F800018060906089500240A941216130614067A
:100F900005060895092E0394000C11F4882352F0DD
:100FA000BB0F40F4BF2B11F460FF04C06F5F7F4F95
:100FB0008F4F9F4F089557FD9058440F551F59F07C
:100FC0005F3F71F04795880F97FB991F61F09F3F36
:100FD00079F087950895121613061406551FF2CF5F
:100FE0004695F1DF08C0161617061806991FF1CFAF
:100FF00086957105610508940895E894BB276627D6
:101000007727CB0197F908950E94760808F48FEFAF
:1010100008950E941C080C94CA070E94BC0738F06F
:101020000E94C30720F0952311F00C94B3070C9491
:10103000B90711240C94FE070E94DB0770F3959FFB
:10104000C1F3950F50E0551F629FF001729FBB27BF
:10105000F00DB11D639FAA27F00DB11DAA1F649F5B
:101060006627B00DA11D661F829F2227B00DA11D0E
:10107000621F739FB00DA11D621F839FA00D611D94
:10108000221F749F3327A00D611D231F849F600DB5
:10109000211D822F762F6A2F11249F5750409AF0DE
:1010A000F1F088234AF0EE0FFF1FBB1F661F771F6A
:1010B000881F91505040A9F79E3F510580F00C9435
:1010C000B3070C94FE075F3FE4F3983ED4F3869594
:1010D00077956795B795F795E7959F5FC1F7FE2BD5
:1010E000880F911D9695879597F90895990F000897
:1010F000550FAA0BE0E8FEEF16161706E807F907EA
:10110000C0F012161306E407F50798F0621B730B84
:10111000840B950B39F40A2661F0232B242B252B05
:1011200021F408950A2609F4A140A6958FEF811DA8
:10113000811D0895EE0FFF1F0590F491E02D099495
:0E11400081E090E0F8940C94A508F894FFCF9D
:10114E0000000000A9012501720150016401F001A7
:10115E00000000000103D102C902BA02AC02AB02C8
:10116E000D0A005B496E697469616C697A6520537A
:10117E006572766F5D005B53544152545D00313899
:02118E0030002F
:107E0000112484B714BE81FFF0D085E080938100F7
:107E100082E08093C00088E18093C10086E0809377
:107E2000C20080E18093C4008EE0C9D0259A86E02C
:107E300020E33CEF91E0309385002093840096BBD3
:107E4000B09BFECF1D9AA8958150A9F7CC24DD24C4
:107E500088248394B5E0AB2EA1E19A2EF3E0BF2EE7
:107E6000A2D0813461F49FD0082FAFD0023811F036
:107E7000013811F484E001C083E08DD089C08234E0
:107E800011F484E103C0853419F485E0A6D080C0E4
:107E9000853579F488D0E82EFF2485D0082F10E0AE
:107EA000102F00270E291F29000F111F8ED06801E7
:107EB0006FC0863521F484E090D080E0DECF843638
:107EC00009F040C070D06FD0082F6DD080E0C81688
:107ED00080E7D80618F4F601B7BEE895C0E0D1E017
:107EE00062D089930C17E1F7F0E0CF16F0E7DF06D8
:107EF00018F0F601B7BEE89568D007B600FCFDCFD4
:107F0000A601A0E0B1E02C9130E011968C91119780
:107F100090E0982F8827822B932B1296FA010C0160
:107F200087BEE89511244E5F5F4FF1E0A038BF0790
:107F300051F7F601A7BEE89507B600FCFDCF97BE46
:107F4000E89526C08437B1F42ED02DD0F82E2BD052
:107F50003CD0F601EF2C8F010F5F1F4F84911BD097
:107F6000EA94F801C1F70894C11CD11CFA94CF0C13
:107F7000D11C0EC0853739F428D08EE10CD085E9AC
:107F80000AD08FE07ACF813511F488E018D01DD067
:107F900080E101D065CF982F8091C00085FFFCCF94
:107FA0009093C60008958091C00087FFFCCF809118
:107FB000C00084FD01C0A8958091C6000895E0E648
:107FC000F0E098E1908380830895EDDF803219F02E
:107FD00088E0F5DFFFCF84E1DECF1F93182FE3DFCA
:107FE0001150E9F7F2DF1F91089580E0E8DFEE27F6
:047FF000FF270994CA
:027FFE00040479
:0400000300007E007B
:00000001FF