:100000000C9461000C9473000C9473000C947300B6
:100010000C9473000C9473000C9473000C94730094
:100020000C9473000C9473000C9473000C94730084
:100030000C9473000C9473000C9473000C94730074
:100040000C949E000C9473000C9473000C94730039
:100050000C9473000C9473000C9473000C94730054
:100060000C9473000C94730000000000240027001F
:100070002A000000000023002600290000000000E4
:10008000250028002B0004040404040404040202D4
:100090000202020203030303030301020408102007
:1000A0004080010204081020010204081020000012
:1000B0000008000201000003040700000000000027
:1000C000000011241FBECFEFD8E0DEBFCDBF21E07E
:1000D000A0E0B1E001C01D92A930B207E1F70E9493
:1000E000E8000C94BB010C940000833081F028F4EC
:1000F000813099F08230A1F008958730A9F08830DE
:10010000B9F08430D1F4809180008F7D03C080915C
:1001100080008F7780938000089584B58F7702C028
:1001200084B58F7D84BD08958091B0008F7703C022
:100130008091B0008F7D8093B00008951F920F9240
:100140000FB60F9211242F933F938F939F93AF93EA
:10015000BF938091050190910601A0910701B09194
:1001600008013091040123E0230F2D3720F401967C
:10017000A11DB11D05C026E8230F0296A11DB11DCA
:10018000209304018093050190930601A093070139
:10019000B09308018091000190910101A0910201AA
:1001A000B09103010196A11DB11D809300019093B0
:1001B0000101A0930201B0930301BF91AF919F9100
:1001C0008F913F912F910F900FBE0F901F90189518
:1001D000789484B5826084BD84B5816084BD85B522
:1001E000826085BD85B5816085BD80916E0081602E
:1001F00080936E00109281008091810082608093D4
:1002000081008091810081608093810080918000D5
:100210008160809380008091B10084608093B10000
:100220008091B00081608093B00080917A008460FA
:1002300080937A0080917A00826080937A00809126
:100240007A00816080937A0080917A008068809340
:100250007A001092C10077EAE72E70E0F72EF701DE
:100260002491E3E9CE2EE0E0DE2EF601849188238E
:1002700099F090E0880F991FFC01E859FF4FA59174
:10028000B491FC01E458FF4F859194919FB7F89485
:100290008C91822B8C939FBFC4EAD0E0FE01249105
:1002A00000E910E0F80184918823C9F090E0880FFC
:1002B000991FFC01E859FF4FA591B491FC01E45846
:1002C000FF4F459154913FB7F8949C91822F8095B0
:1002D00098239C93FA019081892380833FBF28EB68
:1002E000622E20E0722E3BEBA32E30E0B32E40E0D6
:1002F000842E40E0942EF3018491FE015490F80185
:100300004490442091F081110E947500E42DF0E0AA
:10031000EE0FFF1FEE58FF4FA591B4918C9158221C
:1003200081E009F480E0582E01C0512CF501849140
:10033000F7014490F60134903320B1F081110E940E
:100340007500E32DF0E0EE0FFF1FE458FF4FA5917D
:10035000B4919FB7F8948C91511003C040944822F7
:1003600001C0482A4C929FBF8114910409F4C3CF65
:0A0370000E940000C0CFF894FFCFF8
:00000001FF
